{"abi":[{"type":"constructor","inputs":[{"name":"_claimIssuerRegistry","type":"address","internalType":"address"}],"stateMutability":"nonpayable"},{"type":"function","name":"allIdentities","inputs":[{"name":"","type":"uint256","internalType":"uint256"}],"outputs":[{"name":"","type":"address","internalType":"address"}],"stateMutability":"view"},{"type":"function","name":"claimIssuerRegistry","inputs":[],"outputs":[{"name":"","type":"address","internalType":"address"}],"stateMutability":"view"},{"type":"function","name":"createIdentity","inputs":[],"outputs":[{"name":"","type":"address","internalType":"address"}],"stateMutability":"nonpayable"},{"type":"function","name":"createIdentityFor","inputs":[{"name":"_owner","type":"address","internalType":"address"}],"outputs":[{"name":"","type":"address","internalType":"address"}],"stateMutability":"nonpayable"},{"type":"function","name":"getIdentities","inputs":[{"name":"_offset","type":"uint256","internalType":"uint256"},{"name":"_limit","type":"uint256","internalType":"uint256"}],"outputs":[{"name":"identityAddresses","type":"address[]","internalType":"address[]"},{"name":"total","type":"uint256","internalType":"uint256"}],"stateMutability":"view"},{"type":"function","name":"getIdentity","inputs":[{"name":"_owner","type":"address","internalType":"address"}],"outputs":[{"name":"","type":"address","internalType":"address"}],"stateMutability":"view"},{"type":"function","name":"getIdentityCount","inputs":[],"outputs":[{"name":"","type":"uint256","internalType":"uint256"}],"stateMutability":"view"},{"type":"function","name":"hasIdentity","inputs":[{"name":"_owner","type":"address","internalType":"address"}],"outputs":[{"name":"","type":"bool","internalType":"bool"}],"stateMutability":"view"},{"type":"function","name":"identities","inputs":[{"name":"","type":"address","internalType":"address"}],"outputs":[{"name":"","type":"address","internalType":"address"}],"stateMutability":"view"},{"type":"function","name":"updateClaimIssuerRegistry","inputs":[{"name":"_newRegistry","type":"address","internalType":"address"}],"outputs":[],"stateMutability":"nonpayable"},{"type":"event","name":"ClaimIssuerRegistryUpdated","inputs":[{"name":"oldRegistry","type":"address","indexed":true,"internalType":"address"},{"name":"newRegistry","type":"address","indexed":true,"internalType":"address"}],"anonymous":false},{"type":"event","name":"IdentityCreated","inputs":[{"name":"owner","type":"address","indexed":true,"internalType":"address"},{"name":"identity","type":"address","indexed":true,"internalType":"address"}],"anonymous":false}],"bytecode":{"object":"0x60803461007457601f612e7738819003918201601f19168301916001600160401b038311848410176100785780849260209460405283398101031261007457516001600160a01b0381169081900361007457600280546001600160a01b031916919091179055604051612dea908161008d8239f35b5f80fd5b634e487b7160e01b5f52604160045260245ffdfe60806040818152600480361015610014575f80fd5b5f92833560e01c908163237f1a21146102d8575080632fea7b811461029d57806332f8337e146102345780634e7291251461020b57806359d21ad9146101dc578063652cec06146101b957806387155dbb1461014d578063a480f9f714610113578063f07d0f09146100d05763f653b81e1461008e575f80fd5b346100cc5760203660031901126100cc576001600160a01b039035818116908190036100c857838391602095528085522054169051908152f35b8380fd5b8280fd5b50346100cc5760203660031901126100cc57359160015483101561011057506100fa602092610318565b905491519160018060a01b039160031b1c168152f35b80fd5b50346100cc5760203660031901126100cc5735916001600160a01b039081841684036101105750610145602093610361565b915191168152f35b50346100cc57816003193601126100cc5761016d839160243590356105fc565b8391935192828401928452845180935260608401926020809601915b81811061019c5750505082938301520390f35b82516001600160a01b031685529386019391860191600101610189565b5050346101d857816003193601126101d8576020906001549051908152f35b5080fd5b5050346101d857816003193601126101d8576020906101fa33610361565b90516001600160a01b039091168152f35b5050346101d857816003193601126101d85760025490516001600160a01b039091168152602090f35b8382346101d85760203660031901126101d857356001600160a01b03818116918290036100cc57600254826bffffffffffffffffffffffff60a01b821617600255167f101e55f4a5122395d17ed5c90faa0d04704b73a08544e4aaae4fcfcab942e94e8380a380f35b50346100cc5760203660031901126100cc576001600160a01b039035818116908190036100c857838391602095528085522054169051908152f35b92919050346100c85760203660031901126100c8576001600160a01b039190358281169081900361031457845260208481529320541615158152f35b8480fd5b60015481101561034d5760015f527fb10e2d527612073b26eecdfd717e6a320cf44b4afac2b0732d9fcbe2b7fa0cf601905f90565b634e487b7160e01b5f52603260045260245ffd5b5f91906001600160a01b03908116801561055457808452836020526040828186205416610500578051906126bf9182810167ffffffffffffffff93828210858311176104ec5760209183916106f6833986815203019087f080156104e25784169383875286602052818720856bffffffffffffffffffffffff60a01b825416179055600154680100000000000000008110156104ce578060016104079201600155610318565b81549060031b908388831b921b1916179055600254169182610450575b5050507f45afe31e3a48a54e27da1d1f2ec6c6e272ce5838616e0d61071b223bceb5c69084839495a390565b843b156104ca5781519263c4566bdd60e01b84526004840152868360248183895af180156104c057156104245782116104ac57527f45afe31e3a48a54e27da1d1f2ec6c6e272ce5838616e0d61071b223bceb5c690825f610424565b634e487b7160e01b86526041600452602486fd5b82513d89823e3d90fd5b8680fd5b634e487b7160e01b88526041600452602488fd5b81513d88823e3d90fd5b634e487b7160e01b89526041600452602489fd5b5162461bcd60e51b815260206004820152602860248201527f4964656e74697479466163746f72793a206964656e7469747920616c72656164604482015267792065786973747360c01b6064820152608490fd5b60405162461bcd60e51b815260206004820152602d60248201527f4964656e74697479466163746f72793a206f776e65722063616e6e6f7420626560448201526c207a65726f206164647265737360981b6064820152608490fd5b67ffffffffffffffff81116105c75760051b60200190565b634e487b7160e01b5f52604160045260245ffd5b919082018092116105e857565b634e487b7160e01b5f52601160045260245ffd5b600180549392848310156106ca5761061490836105db565b8481116106c3575b8281039081116105e85761062f816105af565b6040519390601f1990601f018116850167ffffffffffffffff8111868210176105c757604052828552610661836105af565b019060209136838701375f5b83811061067d5750505050509190565b61068f61068a82846105db565b610318565b9054875183101561034d5760039190911b1c6001600160a01b0316600582901b87018401525f1981146105e857840161066d565b508361061c565b5050506040516020810181811067ffffffffffffffff8211176105c7576040525f81525f368137919056fe608034620001b257601f620026bf38819003918201601f19168301926001600160401b03929091838511838610176200019e578160209284926040978852833981010312620001b25751906001600160a01b0382168203620001b257825160609290921b6001600160601b0319166020830190815260148352919283810192828411858510176200019e57838252845190209160a08501908111848210176200019e578152600192838152600260806060870196868852018481525f9685885287602052848820935184555186840155519101558284528260205280842080546801000000000000000091828210156200018a579062000104918682018155620001b6565b919080549260031b5f19938487831b921b191617905583865260026020528286208054918210156200018a579162000166827f480000bb1edad8ca1470381cc334b1917fbd51c6531f3a623ea8e0ec7e38a6e9948880989795018155620001b6565b819291549060031b9187831b921b1916179055519480a46124de9081620001e18239f35b634e487b7160e01b87526041600452602487fd5b634e487b7160e01b5f52604160045260245ffd5b5f80fd5b8054821015620001cc575f5260205f2001905f90565b634e487b7160e01b5f52603260045260245ffdfe6080604052600436101561001a575b3615610018575f80fd5b005b5f3560e01c8063058b316c146101a15780630e9705a91461019c57806312aaac7014610197578063169a0b071461013d5780631d3812401461019257806322583b461461016a5780634eee424a1461018d578063517103bf1461017957806353d413c514610188578063747442d31461018357806375e5598c1461013d5780637b204e021461015157806380e9e9e11461017e57806382d09446146101795780639010f7261461017457806392c54daf1461016f5780639e140cc81461016a578063b1a34e0d14610165578063b61d27f614610160578063b93d28eb1461015b578063c4566bdd14610156578063c670218714610151578063c9100bcb1461014c578063d202158d14610147578063da4cb047146101425763f22d08a60361000e575b61024b565b610f2b565b610f00565b610e3d565b610992565b610d41565b610cda565b610be4565b610b53565b610407565b610ae8565b610a58565b6101a1565b6109e7565b6107d1565b6105f9565b610422565b610266565b6101db565b6101c0565b346101bc575f3660031901126101bc57602060405160018152f35b5f80fd5b346101bc575f3660031901126101bc57602060405160058152f35b346101bc5760203660031901126101bc576004355f525f6020526040805f20908051906060820182811067ffffffffffffffff821117610246576060938291825280549384815260026001830154928360208401520154938491015281519384526020840152820152f35b610f49565b346101bc575f3660031901126101bc57602060405160028152f35b346101bc5760603660031901126101bc57600435602435604435906102ca6102c560405160208101906102bd816102af33856014916001600160601b03199060601b1681520190565b03601f198101835282610f79565b51902061101e565b611293565b82156103c2576102db8115156112ee565b60026102ee845f525f60205260405f2090565b015415610377575b6103076103038285611200565b1590565b610341575b604051927f480000bb1edad8ca1470381cc334b1917fbd51c6531f3a623ea8e0ec7e38a6e95f80a460018152602090f35b0390f35b61035c81610357855f52600260205260405f2090565b61136b565b61037283610357835f52600160205260405f2090565b61030c565b6103bd610382610f9b565b8281528360208201528460408201526103a2855f525f60205260405f2090565b90604060029180518455602081015160018501550151910155565b6102f6565b60405162461bcd60e51b815260206004820152601c60248201527f4964656e746974793a206b65792063616e6e6f74206265207a65726f000000006044820152606490fd5b346101bc575f3660031901126101bc57602060405160048152f35b346101bc5760203660031901126101bc5760043561045061044b825f52600360205260405f2090565b611c90565b6040810180516001600160a01b0393919061046e9085161515612182565b6040513360601b6001600160601b031916602082019081526104b59161049781603481016102af565b51902082516001600160a01b031633149081156105e9575b506121ce565b6104c883515f52600460205260405f2090565b925f5b8454808210156105b757846104ed6104e38489611339565b90549060031b1c90565b1461050157506104fc90610fde565b6104cb565b6105ab9661055c6105a697610557889561055161054a6104e36105447f3cf57863a89432c61c4a27073c6ee39e8a764bff5a05aebfbcdcdc80b2e6130a99611465565b86611339565b9184611339565b9061134e565b611473565b835160208501519551909490610595906001600160a01b03169160608101519060a060808201519101519160405195869516998561222b565b0390a45f52600360205260405f2090565b6122af565b60405160018152602090f35b50506105a69350827f3cf57863a89432c61c4a27073c6ee39e8a764bff5a05aebfbcdcdc80b2e6130a6105ab9661055c565b6105f3915061101e565b5f6104af565b346101bc5760403660031901126101bc5760043560243561063e6102c560405160208101906102bd816102af33856014916001600160601b03199060601b1681520190565b61065061064b8284611200565b6113a8565b60018181809314610797575b9150610670835f52600260205260405f2090565b5f825b610736575b505061068c825f52600160205260405f2090565b5f825b6106db575b50506106a7835f525f60205260405f2090565b015490604051927f585a4aef50f8267a92b32412b331b20f7f8b96f2245b253b9cc50dcc621d33975f80a460018152602090f35b81548082101561073057856106f36104e38486611339565b1461070f57509061070683949392610fde565b9091929361068f565b610729929161055161054a6104e361054461055795611465565b5f80610694565b50610694565b9082939181548082101561078d57836107526104e38486611339565b14610769575061076190610fde565b909193610673565b6107859394509061055161054a6104e361054461055795611465565b905f80610678565b5050819350610678565b60015f8190526020526107cc827fcc69885fda6bcc1a4ace058b4a62bf5e179ea78fd58a1ccd71c22cc9b688792f5411611405565b61065c565b346101bc576040806003193601126101bc576004359060243580151581036101bc57816020936108236102c58351878101906102bd816102af33856014916001600160601b03199060601b1681520190565b60018060a01b039261085984610851610844855f52600660205260405f2090565b546001600160a01b031690565b161515611a32565b6108866108816103036003610876865f52600660205260405f2090565b015460081c60ff1690565b611a89565b6108b081600361089e855f52600660205260405f2090565b019060ff801983541691151516179055565b8251811515815282907fb3932da477fe5d6c8ff2eafef050c0f3a1af18fc07121001482600f36f3715d890602090a26108ee575b5050505160018152f35b7f1f920dbda597d7bf95035464170fa58d0a4b57f13a1c315ace6793b9f63688b8610921825f52600660205260405f2090565b60038101805461ff001916610100179055938454610974906001600160a01b0316956108445f8060018401996109628b5460028701809c5192838092611ae1565b03925af161096e611b60565b50611b8f565b9454946109878751928392169582611c6b565b0390a45f81816108e4565b346101bc575f3660031901126101bc57602060405160038152f35b602090816040818301928281528551809452019301915f5b8281106109d3575050505090565b8351855293810193928101926001016109c5565b346101bc576020806003193601126101bc576004355f526004815260405f209060405190818184549182815201935f52815f20915f905b828210610a415761033d85610a3581890382610f79565b604051918291826109ad565b835486529485019460019384019390910190610a1e565b346101bc576020806003193601126101bc576004355f52600180825260405f209160405191828285549182815201945f52825f20925f905b828210610aa75761033d86610a35818a0382610f79565b84548752958601959383019390830190610a90565b600435906001600160a01b03821682036101bc57565b604435906001600160a01b03821682036101bc57565b346101bc5760203660031901126101bc576001600160a01b03610b09610abc565b165f526007602052602060ff60405f2054166040519015158152f35b9181601f840112156101bc5782359167ffffffffffffffff83116101bc57602083818601950101116101bc57565b346101bc5760c03660031901126101bc57610b6c610ad2565b67ffffffffffffffff6064358181116101bc57610b8d903690600401610b25565b926084358381116101bc57610ba6903690600401610b25565b9060a4359485116101bc5761033d95610bc6610bd4963690600401610b25565b959094602435600435611f32565b6040519081529081906020820190565b60603660031901126101bc57610bf8610abc565b60443567ffffffffffffffff81116101bc57610c18903690600401610b25565b6040513360601b6001600160601b0319166020820190815292939290610c4181603481016102af565b519020610c4d816110c3565b908115610cca575b5015610c6c5761033d92610bd492602435906117e6565b60405162461bcd60e51b815260206004820152603060248201527f4964656e746974793a2073656e646572206973206e6f7420616374696f6e206f60448201526f72206d616e6167656d656e74206b657960801b6064820152608490fd5b610cd4915061101e565b5f610c55565b346101bc5760203660031901126101bc57610cf3610abc565b6040513360601b6001600160601b03191660208201908152610d21916102c591906102bd81603481016102af565b6001600160a01b03165f908152600760205260409020805460ff19169055005b346101bc5760203660031901126101bc57610d5a610abc565b6040513360601b6001600160601b03191660208201908152610d88916102c591906102bd81603481016102af565b6001600160a01b03165f908152600760205260409020805460ff19166001179055005b91908251928382525f5b848110610dd5575050825f602080949584010152601f8019910116010190565b602081830181015184830182015201610db5565b949193610e2c93610e3a9795610e1e938852602088015260018060a01b0316604087015260c0606087015260c0860190610dab565b908482036080860152610dab565b9160a0818403910152610dab565b90565b346101bc5760203660031901126101bc576004355f52600360205260405f20604051610e6881610f5d565b8154815261033d6001830154916020810192835260018060a01b03600285015416936040820194855260405190610ead82610ea68160038501611bdb565b0383610f79565b60608301918252610eef610ed66005610ec860048501611c7c565b936080870194855201611c7c565b60a085018190529351955196516001600160a01b031690565b915190519160405196879687610de9565b346101bc5760403660031901126101bc576020610f21602435600435611200565b6040519015158152f35b346101bc5760203660031901126101bc576020610f216004356123e2565b634e487b7160e01b5f52604160045260245ffd5b60c0810190811067ffffffffffffffff82111761024657604052565b90601f8019910116810190811067ffffffffffffffff82111761024657604052565b604051906060820182811067ffffffffffffffff82111761024657604052565b60405190610fc882610f5d565b565b634e487b7160e01b5f52601160045260245ffd5b5f198114610fec5760010190565b610fca565b634e487b7160e01b5f52603260045260245ffd5b80518210156110195760209160051b010190565b610ff1565b5f90815260208181526002604083200154156110bf576002815260408220906040518092839183825491828152019186528386209386905b8282106110a55750505061106c92500382610f79565b815b81518110156110a0576001806110848385611005565b5114611099575061109490610fde565b61106e565b9250505090565b505090565b855484526001958601958795509381019390910190611056565b5090565b5f908152602081815260029081604084200154156110a05781815260408320906040518092839183825491828152019187528387209387905b82821061114b5750505061111292500382610f79565b825b815181101561114557826111288284611005565b511461113c5761113790610fde565b611114565b50505050600190565b50505090565b8554845260019586019587955093810193909101906110fc565b5f90815260208181526002604083200154156110bf576002815260408220906040518092839183825491828152019186528386209386905b8282106111e6575050506111b392500382610f79565b815b81518110156110a05760036111ca8284611005565b51146111de576111d990610fde565b6111b5565b505050600190565b85548452600195860195879550938101939091019061119d565b905f91825260208281526002604084200154156110a0576002815260408320906040518092839183825491828152019187528387209387905b8282106112795750505061124f92500382610f79565b825b815181101561114557826112658284611005565b511461113c5761127490610fde565b611251565b855484526001958601958795509381019390910190611239565b1561129a57565b60405162461bcd60e51b815260206004820152602660248201527f4964656e746974793a2073656e646572206973206e6f74206d616e6167656d656044820152656e74206b657960d01b6064820152608490fd5b156112f557565b606460405162461bcd60e51b815260206004820152602060248201527f4964656e746974793a20707572706f73652063616e6e6f74206265207a65726f6044820152fd5b8054821015611019575f5260205f2001905f90565b916113679183549060031b91821b915f19901b19161790565b9055565b80549068010000000000000000821015610246578161139291600161136794018155611339565b819391549060031b91821b915f19901b19161790565b156113af57565b60405162461bcd60e51b815260206004820152602860248201527f4964656e746974793a206b657920646f6573206e6f742068617665207468697360448201526720707572706f736560c01b6064820152608490fd5b1561140c57565b60405162461bcd60e51b815260206004820152602b60248201527f4964656e746974793a2063616e6e6f742072656d6f7665206c617374206d616e60448201526a6167656d656e74206b657960a81b6064820152608490fd5b5f19810191908211610fec57565b805490811561149c575f199182019161148c8383611339565b909182549160031b1b1916905555565b634e487b7160e01b5f52603160045260245ffd5b67ffffffffffffffff811161024657601f01601f191660200190565b9291926114d8826114b0565b916114e66040519384610f79565b8294818452818301116101bc578281602093845f960137010152565b90600182811c92168015611530575b602083101461151c57565b634e487b7160e01b5f52602260045260245ffd5b91607f1691611511565b818110611545575050565b5f815560010161153a565b9190601f811161155f57505050565b610fc8925f5260205f20906020601f840160051c83019310611589575b601f0160051c019061153a565b909150819061157c565b919091825167ffffffffffffffff8111610246576115bb816115b58454611502565b84611550565b602080601f83116001146115f55750819293945f926115ea575b50508160011b915f199060031b1c1916179055565b015190505f806115d5565b90601f19831695611609855f5260205f2090565b925f905b8882106116445750508360019596971061162c575b505050811b019055565b01515f1960f88460031b161c191690555f8080611622565b8060018596829496860151815501950193019061160d565b815181546001600160a01b0319166001600160a01b039190911617815590602091828201519260019384830155600282019060408401519485519167ffffffffffffffff8311610246576116ba836116b48654611502565b86611550565b80601f841160011461173c575092828060039461171b9794608097610fc89b5f94611731575b50501b915f1990861b1c19161790555b01926117146117026060830151151590565b859060ff801983541691151516179055565b0151151590565b815461ff00191690151560081b61ff0016179055565b015192505f806116e0565b9193949596601f198416611753875f5260205f2090565b935f905b82821061179e57505093610fc898979361171b9793608097938360039810611787575b505050811b0190556116f0565b01515f1983881b60f8161c191690555f808061177a565b808886978294978701518155019601940190611757565b908060209392818452848401375f828201840152601f01601f1916010190565b916020610e3a9381815201916117b5565b919091600554936117f685610fde565b6005556040519060a082019282841067ffffffffffffffff851117610246576040939093526001600160a01b038316825285927f8afcfabcb00e47a53a8fc3e9f23ff47ee1926194bb1350dd007c50b412a6cee892611888908760208201526118603685896114cc565b60408201525f60608201525f6080820152611883865f52600660205260405f2090565b61165c565b6118a060405192839260018060a01b031696836117d5565b0390a46040513360601b6001600160601b031916602082019081526118cc916102bd81603481016102af565b6118d35790565b6110bf816040513360601b6001600160601b03191660208201908152611905916102c591906102bd81603481016102af565b60018060a01b0361192581610851610844855f52600660205260405f2090565b6119426108816103036003610876865f52600660205260405f2090565b6119676003611959845f52600660205260405f2090565b01805460ff19166001179055565b817fb3932da477fe5d6c8ff2eafef050c0f3a1af18fc07121001482600f36f3715d86040518061199c81906001602083019252565b0390a26119b1825f52600660205260405f2090565b60038101805461ff0019166101001790559182547f1f920dbda597d7bf95035464170fa58d0a4b57f13a1c315ace6793b9f63688b8906001600160a01b031692611a1660018601956108445f80895498610962600286019a8b60405192838092611ae1565b945494611a2a604051928392169582611c6b565b0390a4600190565b15611a3957565b60405162461bcd60e51b815260206004820152602260248201527f4964656e746974793a20657865637574696f6e20646f6573206e6f74206578696044820152611cdd60f21b6064820152608490fd5b15611a9057565b60405162461bcd60e51b8152602060048201526024808201527f4964656e746974793a20657865637574696f6e20616c726561647920657865636044820152631d5d195960e21b6064820152608490fd5b5f92918154611aef81611502565b92600191808316908115611b455750600114611b0c575b50505050565b9091929394505f52602090815f20905f915b858310611b34575050505001905f808080611b06565b805485840152918301918101611b1e565b60ff191684525050508115159091020191505f808080611b06565b3d15611b8a573d90611b71826114b0565b91611b7f6040519384610f79565b82523d5f602084013e565b606090565b15611b9657565b60405162461bcd60e51b815260206004820152601a60248201527f4964656e746974793a20657865637574696f6e206661696c65640000000000006044820152606490fd5b905f9291805491611beb83611502565b9182825260019384811690815f14611c485750600114611c0b5750505050565b90919394505f52602092835f2092845f945b838610611c3457505050500101905f808080611b06565b805485870183015294019385908201611c1d565b9294505050602093945060ff191683830152151560051b0101905f808080611b06565b906020610e3a928181520190611bdb565b90610fc8610ea69260405193848092611bdb565b90600560a0604051611ca181610f5d565b611d1581958054835260018101546020840152600180851b036002820154166040840152604051611ce081611cd98160038601611bdb565b0382610f79565b6060840152604051611cf981611cd98160048601611bdb565b6080840152611d0e6040518096819301611bdb565b0384610f79565b0152565b15611d2057565b60405162461bcd60e51b815260206004820152602160248201527f4964656e746974793a20696e76616c696420636c61696d207369676e617475726044820152606560f81b6064820152608490fd5b15611d7657565b60405162461bcd60e51b815260206004820152601c60248201527f4964656e746974793a20697373756572206e6f742074727573746564000000006044820152606490fd5b8151815560208083015160018084019190915560408401516002840180546001600160a01b0319166001600160a01b03929092169190911790559290600383019060608301519485519167ffffffffffffffff831161024657611e22836116b48654611502565b80601f8411600114611e7b575091808060a0959360059795610fc89a5f94611e70575b50501b915f199060031b1c19161790555b611e67608082015160048601611593565b01519101611593565b015192505f80611e45565b9193949596601f198416611e92875f5260205f2090565b935f905b828210611edb5750509260a095928592610fc89a99966005999610611ec3575b505050811b019055611e56565b01515f1960f88460031b161c191690555f8080611eb6565b808886978294978701518155019601940190611e96565b959391611f1690611f2494610e3a9997938952608060208a015260808901916117b5565b9186830360408801526117b5565b9260608185039101526117b5565b95611ff6989495979197604051966020880188611f698b888490916034926001600160601b03199060601b16825260148201520190565b0398611f7d601f199a8b8101835282610f79565b5190209a8b9860018c14612141575b6040516001600160601b03193360601b16602082019081526034928301825291611fb69082610f79565b519020303314908115612131575b506001600160a01b0387165f908152600760205260409020611fe8905b5460ff1690565b908115612129575b50611d6f565b60018060a01b0395888a8c6120968a61202a600261201c875f52600360205260405f2090565b01546001600160a01b031690565b161591612035610fbb565b84815260208101919091526001600160a01b038b16604082015261205a3688886114cc565b606082015261206a368a8a6114cc565b608082015261207a368e8c6114cc565b60a0820152612091855f52600360205260405f2090565b611dbb565b156120ef57916120db7f46149b18aa084502c3f12bc75e19eda8bda8d102b82cce8474677a6d0d5f43c59a9694926103576120e99997955f52600460205260405f2090565b604051988998169c88611ef2565b0390a490565b5050917f3bab293fc00db832d7619a9299914251b8747c036867ec056cbd506f60135b139793916120e99593604051988998169c88611ef2565b90505f611ff0565b61213b9150611165565b5f611fc4565b61217d61216a6121523688886114cc565b6020815191012061216436878d6114cc565b9061233b565b6001600160a01b03898116911614611d19565b611f8c565b1561218957565b60405162461bcd60e51b815260206004820152601e60248201527f4964656e746974793a20636c61696d20646f6573206e6f7420657869737400006044820152606490fd5b156121d557565b60405162461bcd60e51b815260206004820152602860248201527f4964656e746974793a206e6f7420617574686f72697a656420746f2072656d6f604482015267766520636c61696d60c01b6064820152608490fd5b9261224b610e3a9593612259938652608060208701526080860190610dab565b908482036040860152610dab565b916060818403910152610dab565b6122718154611502565b908161227b575050565b81601f5f931160011461228c575055565b9080839182526122ab601f60208420940160051c84016001850161153a565b5555565b60055f918281558260018201558260028201556122ce60038201612267565b6122da60048201612267565b016122e58154611502565b806122ef57505050565b82601f821160011461230057505055565b90918082526122ab601f60208420940160051c84016001850161153a565b60ff601b9116019060ff8211610fec57565b6040513d5f823e3d90fd5b905f9160418251036110a05760208201519260606040840151930151901a90601b82106123d2575b60ff8216601b81141590816123c6575b506123be576123a65f93602095604051948594859094939260ff6060936080840197845216602083015260408201520152565b838052039060015afa156123b9575f5190565b612330565b505050505f90565b601c915014155f612373565b906123dc9061231e565b90612363565b5f9081526020600481526040908183209082518092839183825491828152019187528387209387905b82821061248e5750505061242192500382610f79565b825b81518110156111455761247c611fe16124638561245561044b6124468789611005565b515f52600360205260405f2090565b01516001600160a01b031690565b6001600160a01b03165f90815260076020526040902090565b61113c5761248990610fde565b612423565b85548452600195860195879550938101939091019061240b56fea26469706673582212203ef18f069e9c626c1c1c26c3abec4e2b153ca7d2f3c2d5f4ade7fe8a8dbaae7b64736f6c63430008140033a2646970667358221220f63b156f8c7b908a4b4725f175002402060204a4ec3e91852f3e308ca339562864736f6c63430008140033","linkReferences":{}},"methodIdentifiers":{"allIdentities(uint256)":"f07d0f09","claimIssuerRegistry()":"4e729125","createIdentity()":"59d21ad9","createIdentityFor(address)":"a480f9f7","getIdentities(uint256,uint256)":"87155dbb","getIdentity(address)":"2fea7b81","getIdentityCount()":"652cec06","hasIdentity(address)":"237f1a21","identities(address)":"f653b81e","updateClaimIssuerRegistry(address)":"32f8337e"},"id":27}