{"abi":[{"type":"constructor","inputs":[{"name":"_payer","type":"address","internalType":"address"},{"name":"_payee","type":"address","internalType":"address"},{"name":"_releaseDelay","type":"uint256","internalType":"uint256"},{"name":"_approvalsRequired","type":"uint8","internalType":"uint8"},{"name":"_arbiter","type":"address","internalType":"address"},{"name":"_identityFactory","type":"address","internalType":"address"},{"name":"_requiredClaims","type":"uint256[]","internalType":"uint256[]"}],"stateMutability":"payable"},{"type":"function","name":"amount","inputs":[],"outputs":[{"name":"","type":"uint256","internalType":"uint256"}],"stateMutability":"view"},{"type":"function","name":"approvals","inputs":[{"name":"","type":"address","internalType":"address"}],"outputs":[{"name":"","type":"bool","internalType":"bool"}],"stateMutability":"view"},{"type":"function","name":"approvalsCount","inputs":[],"outputs":[{"name":"","type":"uint8","internalType":"uint8"}],"stateMutability":"view"},{"type":"function","name":"approvalsRequired","inputs":[],"outputs":[{"name":"","type":"uint8","internalType":"uint8"}],"stateMutability":"view"},{"type":"function","name":"approve","inputs":[],"outputs":[],"stateMutability":"nonpayable"},{"type":"function","name":"arbiter","inputs":[],"outputs":[{"name":"","type":"address","internalType":"address"}],"stateMutability":"view"},{"type":"function","name":"canRelease","inputs":[],"outputs":[{"name":"","type":"bool","internalType":"bool"}],"stateMutability":"view"},{"type":"function","name":"changeArbiter","inputs":[{"name":"newArbiter","type":"address","internalType":"address"}],"outputs":[],"stateMutability":"nonpayable"},{"type":"function","name":"createdAt","inputs":[],"outputs":[{"name":"","type":"uint256","internalType":"uint256"}],"stateMutability":"view"},{"type":"function","name":"getRequiredClaims","inputs":[],"outputs":[{"name":"","type":"uint256[]","internalType":"uint256[]"}],"stateMutability":"view"},{"type":"function","name":"getStatus","inputs":[],"outputs":[{"name":"_released","type":"bool","internalType":"bool"},{"name":"_refunded","type":"bool","internalType":"bool"},{"name":"_approvalsCount","type":"uint8","internalType":"uint8"},{"name":"_approvalsRequired","type":"uint8","internalType":"uint8"},{"name":"_releaseTime","type":"uint256","internalType":"uint256"},{"name":"_canRelease","type":"bool","internalType":"bool"},{"name":"_identityBypassEnabled","type":"bool","internalType":"bool"}],"stateMutability":"view"},{"type":"function","name":"identityBypassEnabled","inputs":[],"outputs":[{"name":"","type":"bool","internalType":"bool"}],"stateMutability":"view"},{"type":"function","name":"identityFactory","inputs":[],"outputs":[{"name":"","type":"address","internalType":"address"}],"stateMutability":"view"},{"type":"function","name":"payee","inputs":[],"outputs":[{"name":"","type":"address","internalType":"address"}],"stateMutability":"view"},{"type":"function","name":"payer","inputs":[],"outputs":[{"name":"","type":"address","internalType":"address"}],"stateMutability":"view"},{"type":"function","name":"refund","inputs":[],"outputs":[],"stateMutability":"nonpayable"},{"type":"function","name":"refunded","inputs":[],"outputs":[{"name":"","type":"bool","internalType":"bool"}],"stateMutability":"view"},{"type":"function","name":"release","inputs":[],"outputs":[],"stateMutability":"nonpayable"},{"type":"function","name":"releaseTime","inputs":[],"outputs":[{"name":"","type":"uint256","internalType":"uint256"}],"stateMutability":"view"},{"type":"function","name":"released","inputs":[],"outputs":[{"name":"","type":"bool","internalType":"bool"}],"stateMutability":"view"},{"type":"function","name":"requiredClaims","inputs":[{"name":"","type":"uint256","internalType":"uint256"}],"outputs":[{"name":"","type":"uint256","internalType":"uint256"}],"stateMutability":"view"},{"type":"function","name":"toggleIdentityBypass","inputs":[],"outputs":[],"stateMutability":"nonpayable"},{"type":"function","name":"verifyAddress","inputs":[{"name":"_address","type":"address","internalType":"address"}],"outputs":[{"name":"hasIdentity","type":"bool","internalType":"bool"},{"name":"hasClaims","type":"bool","internalType":"bool"}],"stateMutability":"view"},{"type":"event","name":"Approved","inputs":[{"name":"approver","type":"address","indexed":true,"internalType":"address"}],"anonymous":false},{"type":"event","name":"ArbiterChanged","inputs":[{"name":"oldArbiter","type":"address","indexed":true,"internalType":"address"},{"name":"newArbiter","type":"address","indexed":true,"internalType":"address"}],"anonymous":false},{"type":"event","name":"EscrowCreated","inputs":[{"name":"payer","type":"address","indexed":true,"internalType":"address"},{"name":"payee","type":"address","indexed":true,"internalType":"address"},{"name":"amount","type":"uint256","indexed":false,"internalType":"uint256"},{"name":"releaseTime","type":"uint256","indexed":false,"internalType":"uint256"},{"name":"approvalsRequired","type":"uint8","indexed":false,"internalType":"uint8"},{"name":"requiredClaims","type":"uint256[]","indexed":false,"internalType":"uint256[]"}],"anonymous":false},{"type":"event","name":"EscrowRefunded","inputs":[{"name":"payer","type":"address","indexed":true,"internalType":"address"},{"name":"amount","type":"uint256","indexed":false,"internalType":"uint256"},{"name":"timestamp","type":"uint256","indexed":false,"internalType":"uint256"}],"anonymous":false},{"type":"event","name":"EscrowReleased","inputs":[{"name":"payee","type":"address","indexed":true,"internalType":"address"},{"name":"amount","type":"uint256","indexed":false,"internalType":"uint256"},{"name":"timestamp","type":"uint256","indexed":false,"internalType":"uint256"}],"anonymous":false},{"type":"event","name":"IdentityBypassToggled","inputs":[{"name":"enabled","type":"bool","indexed":false,"internalType":"bool"}],"anonymous":false},{"type":"error","name":"AlreadyApproved","inputs":[]},{"type":"error","name":"ClaimVerificationFailed","inputs":[]},{"type":"error","name":"EscrowAlreadyRefunded","inputs":[]},{"type":"error","name":"EscrowAlreadyReleased","inputs":[]},{"type":"error","name":"IdentityVerificationRequired","inputs":[]},{"type":"error","name":"InsufficientApprovals","inputs":[]},{"type":"error","name":"InvalidConfiguration","inputs":[]},{"type":"error","name":"TimelockNotExpired","inputs":[]},{"type":"error","name":"TransferFailed","inputs":[]},{"type":"error","name":"Unauthorized","inputs":[]}],"bytecode":{"object":"0x60a06040908082526200155980380380916200001c8285620003d0565b833981019060e081830312620003cc576200003781620003f4565b9160209062000048828401620003f4565b93858401519160608501519360ff8516809503620003cc576200006e60808701620003f4565b956200007d60a08201620003f4565b60c08201516001600160401b0392838211620003cc57019584601f88011215620003cc57865194838611620002d6578560051b978c5196620000c2878b0189620003d0565b87528587019086829a820101928311620003cc5786809101915b838310620003bb57505050503415620003aa576001600160a01b0386811699908a156200039957808c169b8c156200038857600198898c1080156200037d575b620003615760038c148062000372575b620003615782861615620003615782620001478288620005b9565b16156200035057826200015b8388620005b9565b16156200035057888051620002fe575b50505060018060a01b0319918b838a54161789558c8360025416176002551690600354161760035534600455426005554201804211620002ea576006558660ff1960095416176009556080528251908111620002d657680100000000000000008111620002d6575f908154818355808210620002ac575b50859493929194858052828620865b8381106200029a575050505060045491600654968a519760808901948952838901528a880152608060608801525180925260a0860194935b82811062000286578989897f2a4d84437393d8b2600c82f507de9ab11e5edc008b14c08ea5f9f699e67d24ce8a8a038ba351610ef790816200066282396080518181816101720152818161023401528181610b210152610beb0152f35b845186529481019493810193830162000229565b825182820155918401918601620001f1565b828052858285852092830192015b828110620002ca575050620001e2565b848155018690620002ba565b634e487b7160e01b5f52604160045260245ffd5b634e487b7160e01b5f52601160045260245ffd5b6200030f8162000319938962000409565b9390508762000409565b9190501590811562000346575b5062000335575f80886200016b565b8c51636f2fb49960e11b8152600490fd5b9050155f62000326565b8e5163f86bb7b560e01b8152600490fd5b8e5163c52a9bd360e01b8152600490fd5b50828416156200012c565b5060038c116200011c565b8d5163c52a9bd360e01b8152600490fd5b8c5163c52a9bd360e01b8152600490fd5b8a5163c52a9bd360e01b8152600490fd5b8251815291810191879101620000dc565b5f80fd5b601f909101601f19168101906001600160401b03821190821017620002d657604052565b51906001600160a01b0382168203620003cc57565b6001600160a01b0392908316919082158015620005ae575b8015620005a4575b6200059a57604092835194858092632fea7b8160e01b825282600496168683015260209384916024998a915afa90811562000590575f9162000553575b501691821562000547575f5b81518110156200053957828160051b8301015186519063da4cb04760e01b82528682015283818981885afa80915f91620004f5575b5090620004bd5750505050505050506001905f90565b15620004e7575f198114620004d55760010162000472565b86601186634e487b7160e01b5f52525ffd5b505050505050506001905f90565b8581813d831162000531575b6200050d8183620003d0565b810103126200052d57519081151582036200052a57505f620004a7565b80fd5b5080fd5b503d62000501565b505050505050506001908190565b5050505050505f905f90565b908382813d831162000588575b6200056c8183620003d0565b810103126200052a57506200058190620003f4565b5f62000466565b503d62000560565b86513d5f823e3d90fd5b505050505f905f90565b5080511562000429565b508382161562000421565b6001600160a01b0390811691908215801562000656575b6200064f5760246020926040519485938492632fea7b8160e01b84521660048301525afa90811562000644575f9162000607575090565b906020823d82116200063b575b816200062360209383620003d0565b810103126200052a57506200063890620003f4565b90565b3d915062000614565b6040513d5f823e3d90fd5b5050505f90565b5080821615620005d056fe6080604081815260049182361015610015575f80fd5b5f92833560e01c918263123119cd1461096e5750816312424e3f1461080b57816312f53950146107e45781631cd746b91461075f5781633705f69e14610739578163372bb9a7146107125781634e69d5601461064c578163590e1ae3146105635781635d0341ba1461052457816376cfa3121461043657816386d1a69f146103b2578163961325211461038e578163aa8c217c14610370578163ae90b21314610347578163b91d400114610328578163cf09e0d014610309578163d2f80947146102bd578163d91d4b0514610263578163e5f0c3521461021f578163ea1d59c9146101fd578163fa2c689e146101d8578163fcb2cafc1461014a575063fe25e00a1461011f575f80fd5b3461014657816003193601126101465760035490516001600160a01b039091168152602090f35b5080fd5b8391503461014657602036600319011261014657356001600160a01b0380821682036101d4577f00000000000000000000000000000000000000000000000000000000000000009061019c8383610e47565b93549316151592156101cb576101ba916101b4610ab4565b91610cdc565b90505b825191825215156020820152f35b505060016101bd565b8280fd5b50503461014657816003193601126101465760209060ff60095460081c169051908152f35b50503461014657816003193601126101465760209060ff600954169051908152f35b505034610146578160031936011261014657517f00000000000000000000000000000000000000000000000000000000000000006001600160a01b03168152602090f35b50503461014657816003193601126101465761027d610ab4565b815192839260208080860192818752855180945286019401925b8281106102a657505050500390f35b835185528695509381019392810192600101610297565b9050346101d45760203660031901126101d4573582548110156101d45782602093527f290decd9548b62a8d60345a988386fc84ba6bc95484008f6362f93160ef3e56301549051908152f35b5050346101465781600319360112610146576020906005549051908152f35b5050346101465781600319360112610146576020906006549051908152f35b50503461014657816003193601126101465760025490516001600160a01b039091168152602090f35b9050346101d457826003193601126101d45760209250549051908152f35b50503461014657816003193601126101465760209060ff6007541690519015158152f35b919050346101d457826003193601126101d45760075460ff81166104285760081c60ff1661041b57600654421061040e5760095460ff8082169160081c161061040157826103fe610a08565b80f35b51638af69cf160e01b8152fd5b5163621e25c360e01b8152fd5b5163e24d48bd60e01b8152fd5b5051631f0a683560e11b8152fd5b9050346101d45760203660031901126101d4576001600160a01b038135818116939192908490036105205760075460ff81166105115760081c60ff166105035760035491838316938415908115806104f9575b6104eb57816104dc575b506104d05750506001600160a01b03191682176003557f8baeb8e9be10c233f000f8215f52a1038a77bc736883d06f9022545ef1ab1a748380a380f35b516282b42960e81b8152fd5b9050600154163314155f610493565b5050516282b42960e81b8152fd5b5085331415610489565b905163e24d48bd60e01b8152fd5b509051631f0a683560e11b8152fd5b8480fd5b9050346101d45760203660031901126101d457356001600160a01b038116908190036101d457818360ff92602095526008855220541690519015158152f35b919050346101d457826003193601126101d45760075460ff81166104285760ff8160081c1661063e576001546001600160a01b031690338290036104eb5760065462278d00810180911161062b57421061061c5784808093610100829461ff00191617600755865490807fefe2e8d9a1e53fd22b439f66298e9dc5146b8a429b9e1636e2334a59782e6904888051858152426020820152a25af16106056109c9565b501561060f578280f35b516312171d8360e31b8152fd5b50505163621e25c360e01b8152fd5b634e487b7160e01b865260118552602486fd5b505163e24d48bd60e01b8152fd5b919050346101d457826003193601126101d457600754916009549160065490602081518094631b82fb4f60e11b825281305afa928315610708579060ff9493929160e097936106d8575b50848151968181161515885260081c1615156020870152848460081c169086015283831660608601526080850152151560a084015260101c16151560c0820152f35b6106fa91935060203d8111610701575b6106f28183610993565b810190610ca1565b915f610696565b503d6106e8565b81513d88823e3d90fd5b50503461014657816003193601126101465760209060ff60095460101c1690519015158152f35b505034610146578160031936011261014657602090610756610b9b565b90519015158152f35b9050346101d457826003193601126101d4576003546001600160a01b031633036107d7575060207f138b6ef6d87733e19b3923338e5996279e3f0547bcbb2ba20293ce7b7afd65a19160ff60095462ff0000828260101c161560101b169062ff00001916179182600955519160101c1615158152a180f35b90516282b42960e81b8152fd5b50503461014657816003193601126101465760209060ff60075460081c1690519015158152f35b919050346101d457826003193601126101d4576007549160ff918284166109615782600894851c1661041b573385528360205282818620541661095457600154336001600160a01b0391821614159081610944575b81610923575b506104d0578260095460101c1615610915575b338552836020528420600160ff19825416179055600954908282851c1690838214610902575061ff006001849201851b1661ff00198316179182600955337f5d91bd0cecc45fef102af61de92c5462fadc884a5ce9d21c15e8a85198f2349e8780a216921c161015806108f6575b6108ee5780f35b6103fe610a08565b506006544210156108e7565b634e487b7160e01b865260119052602485fd5b61091e33610b1f565b610879565b60035416801591508115610939575b505f610866565b90503314155f610932565b8091506002541633141590610860565b5163080fc0bd60e11b8152fd5b51631f0a683560e11b8152fd5b8490346101465781600319360112610146576001546001600160a01b03168152602090f35b90601f8019910116810190811067ffffffffffffffff8211176109b557604052565b634e487b7160e01b5f52604160045260245ffd5b3d15610a03573d9067ffffffffffffffff82116109b557604051916109f8601f8201601f191660200184610993565b82523d5f602084013e565b606090565b60ff60095460101c1615610a8b575b600160ff1960075416176007555f80808060018060a01b036002541660045490807fe2dfcde598cb66b4f1b776076fc47ec832da9a3f92a82f224b0181ba2bfb9b9e60408051858152426020820152a25af1610a716109c9565b5015610a7957565b6040516312171d8360e31b8152600490fd5b600154610aaf906001600160a01b0390610aa6908216610b1f565b60025416610b1f565b610a17565b604051905f5480835282602091828201905f80527f290decd9548b62a8d60345a988386fc84ba6bc95484008f6362f93160ef3e563935f905b828210610b0557505050610b0392500383610993565b565b855484526001958601958895509381019390910190610aed565b7f00000000000000000000000000000000000000000000000000000000000000006001600160a01b03610b528383610e47565b1615610b89575f54610b62575050565b610b6e916101b4610ab4565b905015610b7757565b604051636f2fb49960e11b8152600490fd5b60405163f86bb7b560e01b8152600490fd5b60075460ff8116908115610c93575b50610c7a5760095460ff811660ff8260081c1610610c8e576006544210610c8e5760101c60ff1615610bdb57600190565b6001546001600160a01b039081167f000000000000000000000000000000000000000000000000000000000000000082610c158383610e47565b1615610c8757826002541692610c2b8483610e47565b1615610c87575f54610c40575b505050600190565b610c56610c6192610c4f610ab4565b9083610cdc565b9390506101b4610ab4565b91905015908115610c7e575b50610c7a575f8080610c38565b5f90565b9050155f610c6d565b5050505f90565b505f90565b60ff915060081c165f610baa565b90816020910312610cb957518015158103610cb95790565b5f80fd5b90816020910312610cb957516001600160a01b0381168103610cb95790565b6001600160a01b0392908316919082158015610e3d575b8015610e34575b610e2a57604092835194858092632fea7b8160e01b825282600496168683015260209384916024998a915afa908115610e20575f91610df3575b5016918215610de7575f5b8151811015610dd957828160051b8301015186519063da4cb04760e01b82528682015283818981885afa5f9181610dba575b50610d855750505050505050506001905f90565b15610dac575f198114610d9a57600101610d3f565b86601186634e487b7160e01b5f52525ffd5b505050505050506001905f90565b610dd2919250853d8711610701576106f28183610993565b905f610d71565b505050505050506001908190565b5050505050505f905f90565b610e139150833d8511610e19575b610e0b8183610993565b810190610cbd565b5f610d34565b503d610e01565b86513d5f823e3d90fd5b505050505f905f90565b50805115610cfa565b5083821615610cf3565b6001600160a01b03908116919082158015610eb7575b610c875760246020926040519485938492632fea7b8160e01b84521660048301525afa908115610eac575f91610e91575090565b610ea9915060203d8111610e1957610e0b8183610993565b90565b6040513d5f823e3d90fd5b5080821615610e5d56fea264697066735822122098f0b8fcd35943895b1bea6d19ef58c1b3435f45769c9c648ad5142c69b7d9e364736f6c63430008140033","linkReferences":{}},"methodIdentifiers":{"amount()":"aa8c217c","approvals(address)":"5d0341ba","approvalsCount()":"fa2c689e","approvalsRequired()":"ea1d59c9","approve()":"12424e3f","arbiter()":"fe25e00a","canRelease()":"3705f69e","changeArbiter(address)":"76cfa312","createdAt()":"cf09e0d0","getRequiredClaims()":"d91d4b05","getStatus()":"4e69d560","identityBypassEnabled()":"372bb9a7","identityFactory()":"e5f0c352","payee()":"ae90b213","payer()":"123119cd","refund()":"590e1ae3","refunded()":"12f53950","release()":"86d1a69f","releaseTime()":"b91d4001","released()":"96132521","requiredClaims(uint256)":"d2f80947","toggleIdentityBypass()":"1cd746b9","verifyAddress(address)":"fcb2cafc"},"id":22}