{"abi":[{"type":"constructor","inputs":[],"stateMutability":"nonpayable"},{"type":"function","name":"addIssuer","inputs":[{"name":"_issuer","type":"address","internalType":"address"},{"name":"_name","type":"string","internalType":"string"},{"name":"_allowedTopics","type":"uint256[]","internalType":"uint256[]"}],"outputs":[],"stateMutability":"nonpayable"},{"type":"function","name":"batchIssueClaims","inputs":[{"name":"_identities","type":"address[]","internalType":"address[]"},{"name":"_topic","type":"uint256","internalType":"uint256"},{"name":"_scheme","type":"uint256","internalType":"uint256"},{"name":"_data","type":"bytes","internalType":"bytes"},{"name":"_uri","type":"string","internalType":"string"}],"outputs":[],"stateMutability":"nonpayable"},{"type":"function","name":"getIssuerInfo","inputs":[{"name":"_issuer","type":"address","internalType":"address"}],"outputs":[{"name":"isTrusted","type":"bool","internalType":"bool"},{"name":"name","type":"string","internalType":"string"},{"name":"allowedTopics","type":"uint256[]","internalType":"uint256[]"}],"stateMutability":"view"},{"type":"function","name":"getTrustedIssuers","inputs":[],"outputs":[{"name":"","type":"address[]","internalType":"address[]"}],"stateMutability":"view"},{"type":"function","name":"hasValidClaim","inputs":[{"name":"_identity","type":"address","internalType":"address"},{"name":"_topic","type":"uint256","internalType":"uint256"}],"outputs":[{"name":"","type":"bool","internalType":"bool"}],"stateMutability":"view"},{"type":"function","name":"isTopicAllowed","inputs":[{"name":"_issuer","type":"address","internalType":"address"},{"name":"_topic","type":"uint256","internalType":"uint256"}],"outputs":[{"name":"","type":"bool","internalType":"bool"}],"stateMutability":"view"},{"type":"function","name":"issueClaim","inputs":[{"name":"_identity","type":"address","internalType":"address"},{"name":"_topic","type":"uint256","internalType":"uint256"},{"name":"_scheme","type":"uint256","internalType":"uint256"},{"name":"_data","type":"bytes","internalType":"bytes"},{"name":"_uri","type":"string","internalType":"string"}],"outputs":[{"name":"","type":"bytes32","internalType":"bytes32"}],"stateMutability":"nonpayable"},{"type":"function","name":"issuerList","inputs":[{"name":"","type":"uint256","internalType":"uint256"}],"outputs":[{"name":"","type":"address","internalType":"address"}],"stateMutability":"view"},{"type":"function","name":"issuers","inputs":[{"name":"","type":"address","internalType":"address"}],"outputs":[{"name":"isTrusted","type":"bool","internalType":"bool"},{"name":"name","type":"string","internalType":"string"},{"name":"addedAt","type":"uint256","internalType":"uint256"}],"stateMutability":"view"},{"type":"function","name":"owner","inputs":[],"outputs":[{"name":"","type":"address","internalType":"address"}],"stateMutability":"view"},{"type":"function","name":"removeIssuer","inputs":[{"name":"_issuer","type":"address","internalType":"address"}],"outputs":[],"stateMutability":"nonpayable"},{"type":"function","name":"transferOwnership","inputs":[{"name":"_newOwner","type":"address","internalType":"address"}],"outputs":[],"stateMutability":"nonpayable"},{"type":"event","name":"ClaimIssued","inputs":[{"name":"identity","type":"address","indexed":true,"internalType":"address"},{"name":"claimId","type":"bytes32","indexed":true,"internalType":"bytes32"},{"name":"topic","type":"uint256","indexed":true,"internalType":"uint256"},{"name":"issuer","type":"address","indexed":false,"internalType":"address"}],"anonymous":false},{"type":"event","name":"IssuerAdded","inputs":[{"name":"issuer","type":"address","indexed":true,"internalType":"address"},{"name":"name","type":"string","indexed":false,"internalType":"string"}],"anonymous":false},{"type":"event","name":"IssuerRemoved","inputs":[{"name":"issuer","type":"address","indexed":true,"internalType":"address"}],"anonymous":false}],"bytecode":{"object":"0x60808060405234610027575f80546001600160a01b031916331790556113b7908161002c8239f35b5f80fdfe60806040526004361015610011575f80fd5b5f803560e01c80632c52e7ab14610da95780632fed3cbf1461098057806338a7543e1461091457806347bc70931461074b57806350e7fff91461054457806353be56be146105005780635e9aab70146104345780638da5cb5b1461040d578063a50fe196146103db578063be94369214610205578063d9dd24c51461013f5763f2fde38b1461009e575f80fd5b3461013c57602036600319011261013c576100b7610dd1565b8154906001600160a01b03906100d03383851614610ffc565b169081156100e8576001600160a01b03191617815580f35b60405162461bcd60e51b815260206004820152602660248201527f436c61696d49737375657252656769737472793a20696e76616c6964206e65776044820152651037bbb732b960d11b6064820152608490fd5b80fd5b503461013c578060031936011261013c5760405180916002549081835260208093018092600283527f405787fa12a823e0f2b7631cc41b3ba8828b3321ca811111fa75cd3aa3bb5ace90835b8181106101e857505050846101a1910385610eb2565b60405193838594850191818652518092526040850193925b8281106101c857505050500390f35b83516001600160a01b0316855286955093810193928101926001016101b9565b82546001600160a01b03168452928601926001928301920161018b565b503461013c5760a036600319011261013c5761021f610dd1565b9060243567ffffffffffffffff6064358181116103d757610244903690600401610deb565b90916084359081116103d35761025e903690600401610deb565b92903386526020966001885261027a60ff6040892054166110f7565b6001600160a01b031693841561037857906102f18893926102a361029e893361130a565b61115d565b6102ae368786611059565b50604051928986850152896040850152896060850152604184526102d184610e82565b60405163b1a34e0d60e01b81529687958695336044358d60048a016111c3565b038187865af193841561036c57809461033a575b505082907fb0365d5eb5064f36d065ee81a07e825e34f5c9a2e9c7407b5ff676978f9ced6d85604051338152a4604051908152f35b909193508482813d8311610365575b6103538183610eb2565b8101031261013c575051915f80610305565b503d610349565b604051903d90823e3d90fd5b60405162461bcd60e51b815260048101899052602d60248201527f436c61696d49737375657252656769737472793a20696e76616c69642069646560448201526c6e74697479206164647265737360981b6064820152608490fd5b8480fd5b8380fd5b503461013c57604036600319011261013c5760206104036103fa610dd1565b6024359061130a565b6040519015158152f35b503461013c578060031936011261013c57546040516001600160a01b039091168152602090f35b503461013c576020806003193601126104fc576001600160a01b03610457610dd1565b168252600180825260408320926040519261047184610e82565b60ff855416151584526104c6610488848701610ed4565b94828101958652600361049d600289016112be565b978860408401520154606082015251151594516040519586526060838701526060860190610f75565b9084820360408601528080875193848152019601925b8281106104e95785870386f35b83518752958101959281019284016104dc565b5080fd5b503461013c57602036600319011261013c576004359060025482101561013c57602061052b83610fb3565b905460405160039290921b1c6001600160a01b03168152f35b503461013c5760a036600319011261013c5767ffffffffffffffff60043581811161074757610577903690600401610e19565b9091602435916044359060643583811161074357610599903690600401610deb565b95909360843590811161073f576105b4903690600401610deb565b9096338952602094600186526105d060ff60408c2054166110f7565b6105dd61029e893361130a565b6105e8368389611059565b50604051928a878501528a60408501528a60608501526041845261060b84610e82565b8a805b878110610619575080f35b8a8a61063f938b8f8989898f938f948f958b61064460018060a01b039e8f928585611219565b611229565b16610666575b505050505050505050505061065f91506110d5565b8b9061060e565b928a94928d61067d61063f8f61069e968e99611219565b16966040519b8c998a98899763b1a34e0d60e01b8952339160048a016111c3565b03925af1909181610707575b5061065f94906106bc575050506110d5565b6106ca61063f858d8d611219565b167fb0365d5eb5064f36d065ee81a07e825e34f5c9a2e9c7407b5ff676978f9ced6d8c604051338152a48a8a8e8b8f8989898f938f948f9561064a565b925090508a82813d8111610738575b6107208183610eb2565b810103126107345790518c9161065f6106aa565b8e80fd5b503d610716565b8780fd5b8680fd5b8280fd5b503461013c57602036600319011261013c57610765610dd1565b81546001600160a01b0391829161077f9083163314610ffc565b168083526001918260205260ff604085205416156108bc57818452602083905260408420805460ff1916905583835b6107dc575b84837faf66545c919a3be306ee446d8f42a9558b5b022620df880517bc9593ec0f2d528280a280f35b60028054808310156108b557908391856107f585610fb3565b949054600395861b1c161461081657505050610810906110d5565b836107ae565b9194955092915f19918281019081116108a157906108478461083a61086694610fb3565b905490891b1c1691610fb3565b90919082549060031b9160018060a01b03809116831b921b1916179055565b8254801561088d57019261087984610fb3565b81939154921b1b1916905555805f806107b3565b634e487b7160e01b87526031600452602487fd5b634e487b7160e01b88526011600452602488fd5b50506107b3565b60405162461bcd60e51b815260206004820152602a60248201527f436c61696d49737375657252656769737472793a2069737375657220646f6573604482015269081b9bdd08195e1a5cdd60b21b6064820152608490fd5b503461013c57602036600319011261013c576040906001600160a01b03610939610dd1565b16815260016020522060ff815416600361095560018401610ed4565b92015461097660405193849315158452606060208501526060840190610f75565b9060408301520390f35b503461013c57606036600319011261013c5761099a610dd1565b906024803567ffffffffffffffff8111610747576109bc903690600401610deb565b60443567ffffffffffffffff81116103d3576109dc903690600401610e19565b909360018060a01b036109f3818854163314610ffc565b8716948515610d5157858752600160205260ff604088205416610cfa5760405192610a1d84610e82565b60018452610a2c368688611059565b916020850192835267ffffffffffffffff8211610ce7578160051b60405192610a586020830185610eb2565b83526020830190820191368311610ce357905b828210610cd357505050604084015260608301428152868852600160205260408820918451151560ff801985541691161783555180519067ffffffffffffffff8211610c09578190610ac06001860154610e4a565b601f8111610c95575b50602090601f8311600114610c27578b92610c1c575b50508160011b915f199060031b1c19161760018301555b6040600283019401519384519067ffffffffffffffff8211610c09576801000000000000000095868311610bf6576020908b835485855585818110610bdb575b50505001908a5260208a208a5b838110610bc757505050506003905191015560025491821015610bb557507fbffc9e6add894cdc9f3243f85aaf5e65d6f6284f63658ea53ea9dd241e4276d8939495610847826001610b989401600255610fb3565b610baf6040519283926020845260208401916110b5565b0390a280f35b634e487b7160e01b8652604160045285fd5b600190602084519401938184015501610b43565b848387610bee955220918201910161109f565b8b5f85610b36565b634e487b7160e01b8b526041600452858bfd5b634e487b7160e01b8a526041600452848afd5b015190505f80610adf565b9250600185018b5260208b20908b935b601f1984168510610c7a576001945083601f19811610610c62575b505050811b016001830155610af6565b01515f1960f88460031b161c191690555f8080610c52565b81810151835560209485019460019093019290910190610c37565b610cc390600187018d5260208d20601f850160051c81019160208610610cc9575b601f0160051c019061109f565b5f610ac9565b9091508190610cb6565b8135815260209182019101610a6b565b8a80fd5b634e487b7160e01b895260416004528389fd5b60405162461bcd60e51b815260206004820152602a818401527f436c61696d49737375657252656769737472793a2069737375657220616c72656044820152696164792065786973747360b01b6064820152608490fd5b60405162461bcd60e51b815260206004820152602b818401527f436c61696d49737375657252656769737472793a20696e76616c69642069737360448201526a756572206164647265737360a81b6064820152608490fd5b503461013c57604036600319011261013c576020610403610dc8610dd1565b6024359061123d565b600435906001600160a01b0382168203610de757565b5f80fd5b9181601f84011215610de75782359167ffffffffffffffff8311610de75760208381860195010111610de757565b9181601f84011215610de75782359167ffffffffffffffff8311610de7576020808501948460051b010111610de757565b90600182811c92168015610e78575b6020831014610e6457565b634e487b7160e01b5f52602260045260245ffd5b91607f1691610e59565b6080810190811067ffffffffffffffff821117610e9e57604052565b634e487b7160e01b5f52604160045260245ffd5b90601f8019910116810190811067ffffffffffffffff821117610e9e57604052565b9060405191825f825492610ee784610e4a565b9081845260019485811690815f14610f525750600114610f12575b5050610f1092500383610eb2565b565b909391505f52602090815f20935f915b818310610f3a575050610f1093508201015f80610f02565b85548884018501529485019487945091830191610f22565b915050610f1094506020925060ff191682840152151560051b8201015f80610f02565b91908251928382525f5b848110610f9f575050825f602080949584010152601f8019910116010190565b602081830181015184830182015201610f7f565b600254811015610fe85760025f527f405787fa12a823e0f2b7631cc41b3ba8828b3321ca811111fa75cd3aa3bb5ace01905f90565b634e487b7160e01b5f52603260045260245ffd5b1561100357565b60405162461bcd60e51b815260206004820152602860248201527f436c61696d49737375657252656769737472793a2063616c6c6572206973206e60448201526737ba1037bbb732b960c11b6064820152608490fd5b92919267ffffffffffffffff8211610e9e5760405191611083601f8201601f191660200184610eb2565b829481845281830111610de7578281602093845f960137010152565b8181106110aa575050565b5f815560010161109f565b908060209392818452848401375f828201840152601f01601f1916010190565b5f1981146110e35760010190565b634e487b7160e01b5f52601160045260245ffd5b156110fe57565b60405162461bcd60e51b815260206004820152603160248201527f436c61696d49737375657252656769737472793a2063616c6c6572206973206e60448201527037ba103a393ab9ba32b21034b9b9bab2b960791b6064820152608490fd5b1561116457565b60405162461bcd60e51b815260206004820152603160248201527f436c61696d49737375657252656769737472793a20746f706963206e6f742061604482015270363637bbb2b2103337b91034b9b9bab2b960791b6064820152608490fd5b96949293611208946112169997936111fa938a5260208a015260018060a01b0316604089015260c0606089015260c0880190610f75565b9186830360808801526110b5565b9260a08185039101526110b5565b90565b9190811015610fe85760051b0190565b356001600160a01b0381168103610de75790565b6001600160a01b03169081156112b85760209060246040518094819363da4cb04760e01b835260048301525afa80915f9161127e575b509061121657505f90565b6020813d82116112b0575b8161129660209383610eb2565b810103126104fc575190811515820361013c57505f611273565b3d9150611289565b50505f90565b906040519182815491828252602092838301915f52835f20935f905b8282106112f057505050610f1092500383610eb2565b8554845260019586019588955093810193909101906112da565b60018060a01b03165f5260018091602082815261132c600260405f20016112be565b80511561137a575f935b611344575b50505050505f90565b805184101561137557838383879660051b840101511461136d57611367906110d5565b93611336565b505050505090565b61133b565b505050509056fea2646970667358221220912f80056e696462a357b0870d27084befb58e6130d1b0c39f217f7bbda758a864736f6c63430008140033","linkReferences":{}},"methodIdentifiers":{"addIssuer(address,string,uint256[])":"2fed3cbf","batchIssueClaims(address[],uint256,uint256,bytes,string)":"50e7fff9","getIssuerInfo(address)":"5e9aab70","getTrustedIssuers()":"d9dd24c5","hasValidClaim(address,uint256)":"2c52e7ab","isTopicAllowed(address,uint256)":"a50fe196","issueClaim(address,uint256,uint256,bytes,string)":"be943692","issuerList(uint256)":"53be56be","issuers(address)":"38a7543e","owner()":"8da5cb5b","removeIssuer(address)":"47bc7093","transferOwnership(address)":"f2fde38b"},"id":21}