{"abi":[{"type":"constructor","inputs":[{"name":"_payer","type":"address","internalType":"address"},{"name":"_payee","type":"address","internalType":"address"},{"name":"_releaseDelay","type":"uint256","internalType":"uint256"},{"name":"_approvalsRequired","type":"uint8","internalType":"uint8"},{"name":"_arbiter","type":"address","internalType":"address"}],"stateMutability":"payable"},{"type":"function","name":"amount","inputs":[],"outputs":[{"name":"","type":"uint256","internalType":"uint256"}],"stateMutability":"view"},{"type":"function","name":"approvals","inputs":[{"name":"","type":"address","internalType":"address"}],"outputs":[{"name":"","type":"bool","internalType":"bool"}],"stateMutability":"view"},{"type":"function","name":"approvalsCount","inputs":[],"outputs":[{"name":"","type":"uint8","internalType":"uint8"}],"stateMutability":"view"},{"type":"function","name":"approvalsRequired","inputs":[],"outputs":[{"name":"","type":"uint8","internalType":"uint8"}],"stateMutability":"view"},{"type":"function","name":"approve","inputs":[],"outputs":[],"stateMutability":"nonpayable"},{"type":"function","name":"arbiter","inputs":[],"outputs":[{"name":"","type":"address","internalType":"address"}],"stateMutability":"view"},{"type":"function","name":"canRelease","inputs":[],"outputs":[{"name":"","type":"bool","internalType":"bool"}],"stateMutability":"view"},{"type":"function","name":"changeArbiter","inputs":[{"name":"newArbiter","type":"address","internalType":"address"}],"outputs":[],"stateMutability":"nonpayable"},{"type":"function","name":"createdAt","inputs":[],"outputs":[{"name":"","type":"uint256","internalType":"uint256"}],"stateMutability":"view"},{"type":"function","name":"getStatus","inputs":[],"outputs":[{"name":"_released","type":"bool","internalType":"bool"},{"name":"_refunded","type":"bool","internalType":"bool"},{"name":"_approvalsCount","type":"uint8","internalType":"uint8"},{"name":"_approvalsRequired","type":"uint8","internalType":"uint8"},{"name":"_releaseTime","type":"uint256","internalType":"uint256"},{"name":"_canRelease","type":"bool","internalType":"bool"}],"stateMutability":"view"},{"type":"function","name":"payee","inputs":[],"outputs":[{"name":"","type":"address","internalType":"address"}],"stateMutability":"view"},{"type":"function","name":"payer","inputs":[],"outputs":[{"name":"","type":"address","internalType":"address"}],"stateMutability":"view"},{"type":"function","name":"refund","inputs":[],"outputs":[],"stateMutability":"nonpayable"},{"type":"function","name":"refunded","inputs":[],"outputs":[{"name":"","type":"bool","internalType":"bool"}],"stateMutability":"view"},{"type":"function","name":"release","inputs":[],"outputs":[],"stateMutability":"nonpayable"},{"type":"function","name":"releaseTime","inputs":[],"outputs":[{"name":"","type":"uint256","internalType":"uint256"}],"stateMutability":"view"},{"type":"function","name":"released","inputs":[],"outputs":[{"name":"","type":"bool","internalType":"bool"}],"stateMutability":"view"},{"type":"event","name":"Approved","inputs":[{"name":"approver","type":"address","indexed":true,"internalType":"address"}],"anonymous":false},{"type":"event","name":"ArbiterChanged","inputs":[{"name":"oldArbiter","type":"address","indexed":true,"internalType":"address"},{"name":"newArbiter","type":"address","indexed":true,"internalType":"address"}],"anonymous":false},{"type":"event","name":"EscrowCreated","inputs":[{"name":"payer","type":"address","indexed":true,"internalType":"address"},{"name":"payee","type":"address","indexed":true,"internalType":"address"},{"name":"amount","type":"uint256","indexed":false,"internalType":"uint256"},{"name":"releaseTime","type":"uint256","indexed":false,"internalType":"uint256"},{"name":"approvalsRequired","type":"uint8","indexed":false,"internalType":"uint8"}],"anonymous":false},{"type":"event","name":"EscrowRefunded","inputs":[{"name":"payer","type":"address","indexed":true,"internalType":"address"},{"name":"amount","type":"uint256","indexed":false,"internalType":"uint256"},{"name":"timestamp","type":"uint256","indexed":false,"internalType":"uint256"}],"anonymous":false},{"type":"event","name":"EscrowReleased","inputs":[{"name":"payee","type":"address","indexed":true,"internalType":"address"},{"name":"amount","type":"uint256","indexed":false,"internalType":"uint256"},{"name":"timestamp","type":"uint256","indexed":false,"internalType":"uint256"}],"anonymous":false},{"type":"error","name":"AlreadyApproved","inputs":[]},{"type":"error","name":"EscrowAlreadyRefunded","inputs":[]},{"type":"error","name":"EscrowAlreadyReleased","inputs":[]},{"type":"error","name":"InsufficientApprovals","inputs":[]},{"type":"error","name":"InvalidConfiguration","inputs":[]},{"type":"error","name":"TimelockNotExpired","inputs":[]},{"type":"error","name":"TransferFailed","inputs":[]},{"type":"error","name":"Unauthorized","inputs":[]}],"bytecode":{"object":"0x6080604052604051610bae380380610bae833981016040819052610022916101e2565b345f036100425760405163c52a9bd360e01b815260040160405180910390fd5b6001600160a01b0385166100695760405163c52a9bd360e01b815260040160405180910390fd5b6001600160a01b0384166100905760405163c52a9bd360e01b815260040160405180910390fd5b60018260ff1610806100a5575060038260ff16115b156100c35760405163c52a9bd360e01b815260040160405180910390fd5b8160ff1660031480156100dd57506001600160a01b038116155b156100fb5760405163c52a9bd360e01b815260040160405180910390fd5b5f80546001600160a01b038088166001600160a01b0319928316179092556001805487841690831617905560028054928416929091169190911790553460035542600481905561014c908490610243565b60058190556008805460ff191660ff85169081179091556001545f54600354604080519182526020820195909552938401929092526001600160a01b03908116929116907f2bed446fe799b91341702b50689176ab97d290752686124dc2dfd0c7703ce5f09060600160405180910390a35050505050610268565b80516001600160a01b03811681146101dd575f5ffd5b919050565b5f5f5f5f5f60a086880312156101f6575f5ffd5b6101ff866101c7565b945061020d602087016101c7565b935060408601519250606086015160ff81168114610229575f5ffd5b9150610237608087016101c7565b90509295509295909350565b8082018082111561026257634e487b7160e01b5f52601160045260245ffd5b92915050565b610939806102755f395ff3fe608060405234801561000f575f5ffd5b5060043610610106575f3560e01c806386d1a69f1161009e578063b91d40011161006e578063b91d400114610229578063cf09e0d014610232578063ea1d59c91461023b578063fa2c689e1461025a578063fe25e00a1461026c575f5ffd5b806386d1a69f146101ea57806396132521146101f2578063aa8c217c146101ff578063ae90b21314610216575f5ffd5b80634e69d560116100d95780634e69d5601461016d578063590e1ae3146101ad5780635d0341ba146101b557806376cfa312146101d7575f5ffd5b8063123119cd1461010a57806312424e3f1461013957806312f53950146101435780633705f69e14610165575b5f5ffd5b5f5461011c906001600160a01b031681565b6040516001600160a01b0390911681526020015b60405180910390f35b61014161027f565b005b60065461015590610100900460ff1681565b6040519015158152602001610130565b610155610417565b610175610460565b604080519615158752941515602087015260ff93841694860194909452911660608401526080830152151560a082015260c001610130565b6101416104de565b6101556101c336600461088b565b60076020525f908152604090205460ff1681565b6101416101e536600461088b565b610656565b610141610776565b6006546101559060ff1681565b61020860035481565b604051908152602001610130565b60015461011c906001600160a01b031681565b61020860055481565b61020860045481565b6008546102489060ff1681565b60405160ff9091168152602001610130565b60085461024890610100900460ff1681565b60025461011c906001600160a01b031681565b60065460ff16156102a357604051631f0a683560e11b815260040160405180910390fd5b600654610100900460ff16156102cc5760405163e24d48bd60e01b815260040160405180910390fd5b335f9081526007602052604090205460ff16156102fc5760405163080fc0bd60e11b815260040160405180910390fd5b5f546001600160a01b0316331480159061032157506001546001600160a01b03163314155b801561034b57506002546001600160a01b0316158061034b57506002546001600160a01b03163314155b15610368576040516282b42960e81b815260040160405180910390fd5b335f908152600760205260409020805460ff1916600190811790915560088054610100900460ff169161039a836108cc565b91906101000a81548160ff021916908360ff16021790555050336001600160a01b03167f5d91bd0cecc45fef102af61de92c5462fadc884a5ce9d21c15e8a85198f2349e60405160405180910390a260085460ff808216610100909204161080159061040857506005544210155b1561041557610415610818565b565b6006545f9060ff161580156104345750600654610100900460ff16155b801561044d575060085460ff8082166101009092041610155b801561045b57506005544210155b905090565b6006546008546005545f928392839283928392839260ff8084169361010090819004821693908104821692911690841580156104a45750600654610100900460ff16155b80156104bd575060085460ff8082166101009092041610155b80156104cb57506005544210155b949b939a50919850965094509092509050565b60065460ff161561050257604051631f0a683560e11b815260040160405180910390fd5b600654610100900460ff161561052b5760405163e24d48bd60e01b815260040160405180910390fd5b5f546001600160a01b03163314610554576040516282b42960e81b815260040160405180910390fd5b6005546105649062278d006108ea565b4210156105845760405163621e25c360e01b815260040160405180910390fd5b6006805461ff0019166101001790555f54600354604080519182524260208301526001600160a01b03909216917fefe2e8d9a1e53fd22b439f66298e9dc5146b8a429b9e1636e2334a59782e6904910160405180910390a25f80546003546040516001600160a01b03909216915b5f6040518083038185875af1925050503d805f811461062c576040519150601f19603f3d011682016040523d82523d5f602084013e610631565b606091505b5050905080610653576040516312171d8360e31b815260040160405180910390fd5b50565b60065460ff161561067a57604051631f0a683560e11b815260040160405180910390fd5b600654610100900460ff16156106a35760405163e24d48bd60e01b815260040160405180910390fd5b6002546001600160a01b0316158015906106c857506002546001600160a01b03163314155b156106e5576040516282b42960e81b815260040160405180910390fd5b6002546001600160a01b031615801561070857505f546001600160a01b03163314155b15610725576040516282b42960e81b815260040160405180910390fd5b600280546001600160a01b038381166001600160a01b0319831681179093556040519116919082907f8baeb8e9be10c233f000f8215f52a1038a77bc736883d06f9022545ef1ab1a74905f90a35050565b60065460ff161561079a57604051631f0a683560e11b815260040160405180910390fd5b600654610100900460ff16156107c35760405163e24d48bd60e01b815260040160405180910390fd5b6005544210156107e65760405163621e25c360e01b815260040160405180910390fd5b60085460ff80821661010090920416101561081457604051638af69cf160e01b815260040160405180910390fd5b6104155b6006805460ff1916600190811790915554600354604080519182524260208301526001600160a01b03909216917fe2dfcde598cb66b4f1b776076fc47ec832da9a3f92a82f224b0181ba2bfb9b9e910160405180910390a26001546003546040515f926001600160a01b031691906105f2565b5f6020828403121561089b575f5ffd5b81356001600160a01b03811681146108b1575f5ffd5b9392505050565b634e487b7160e01b5f52601160045260245ffd5b5f60ff821660ff81036108e1576108e16108b8565b60010192915050565b808201808211156108fd576108fd6108b8565b9291505056fea264697066735822122080c1ea606c7a7bb82b1642dbf738f64ff55a18b471c395c37899d101ffe0e00c64736f6c634300081e0033","linkReferences":{}},"methodIdentifiers":{"amount()":"aa8c217c","approvals(address)":"5d0341ba","approvalsCount()":"fa2c689e","approvalsRequired()":"ea1d59c9","approve()":"12424e3f","arbiter()":"fe25e00a","canRelease()":"3705f69e","changeArbiter(address)":"76cfa312","createdAt()":"cf09e0d0","getStatus()":"4e69d560","payee()":"ae90b213","payer()":"123119cd","refund()":"590e1ae3","refunded()":"12f53950","release()":"86d1a69f","releaseTime()":"b91d4001","released()":"96132521"},"storageLayout":{"storage":[{"astId":40434,"contract":"src/Escrow.sol:Escrow","label":"payer","offset":0,"slot":"0","type":"t_address"},{"astId":40436,"contract":"src/Escrow.sol:Escrow","label":"payee","offset":0,"slot":"1","type":"t_address"},{"astId":40438,"contract":"src/Escrow.sol:Escrow","label":"arbiter","offset":0,"slot":"2","type":"t_address"},{"astId":40440,"contract":"src/Escrow.sol:Escrow","label":"amount","offset":0,"slot":"3","type":"t_uint256"},{"astId":40442,"contract":"src/Escrow.sol:Escrow","label":"createdAt","offset":0,"slot":"4","type":"t_uint256"},{"astId":40444,"contract":"src/Escrow.sol:Escrow","label":"releaseTime","offset":0,"slot":"5","type":"t_uint256"},{"astId":40446,"contract":"src/Escrow.sol:Escrow","label":"released","offset":0,"slot":"6","type":"t_bool"},{"astId":40448,"contract":"src/Escrow.sol:Escrow","label":"refunded","offset":1,"slot":"6","type":"t_bool"},{"astId":40452,"contract":"src/Escrow.sol:Escrow","label":"approvals","offset":0,"slot":"7","type":"t_mapping(t_address,t_bool)"},{"astId":40454,"contract":"src/Escrow.sol:Escrow","label":"approvalsRequired","offset":0,"slot":"8","type":"t_uint8"},{"astId":40456,"contract":"src/Escrow.sol:Escrow","label":"approvalsCount","offset":1,"slot":"8","type":"t_uint8"}],"types":{"t_address":{"encoding":"inplace","label":"address","numberOfBytes":"20"},"t_bool":{"encoding":"inplace","label":"bool","numberOfBytes":"1"},"t_mapping(t_address,t_bool)":{"encoding":"mapping","key":"t_address","label":"mapping(address => bool)","numberOfBytes":"32","value":"t_bool"},"t_uint256":{"encoding":"inplace","label":"uint256","numberOfBytes":"32"},"t_uint8":{"encoding":"inplace","label":"uint8","numberOfBytes":"1"}}},"userdoc":{"version":1,"kind":"user","methods":{"approve()":{"notice":"Approve the escrow release"},"canRelease()":{"notice":"Check if escrow is ready to be released"},"changeArbiter(address)":{"notice":"Change arbiter (can only be called by current arbiter or payer if no arbiter set)"},"constructor":{"notice":"Create an escrow with configurable release conditions"},"getStatus()":{"notice":"Get escrow status summary"},"refund()":{"notice":"Refund payer if release conditions not met and timelock expired by 30 days"},"release()":{"notice":"Manually trigger release after conditions are met"}},"notice":"Enhanced escrow contract with timelocks, multi-sig approvals, and emergency refunds."},"devdoc":{"version":1,"kind":"dev","details":"Supports programmable release conditions for institutional settlement workflows.","methods":{"approve()":{"details":"Can be called by payer, payee, or arbiter depending on configuration"},"constructor":{"params":{"_approvalsRequired":"Number of approvals needed (1=payer only, 2=payer+payee, 3=includes arbiter)","_arbiter":"Optional arbiter address (use address(0) if not needed)","_payee":"Recipient of the escrowed funds","_payer":"Address of the payer (funds sender)","_releaseDelay":"Seconds to wait before funds can be released (timelock)"}},"refund()":{"details":"Emergency escape hatch if payee never approves"}},"title":"Escrow"},"id":22}